{
  "_format": "hh-sol-artifact-1",
  "contractName": "BinBins",
  "sourceName": "contracts/BinBins.sol",
  "abi": [
    {
      "inputs": [],
      "stateMutability": "nonpayable",
      "type": "constructor"
    },
    {
      "anonymous": false,
      "inputs": [
        {
          "indexed": true,
          "internalType": "address",
          "name": "walletAddress",
          "type": "address"
        },
        {
          "indexed": false,
          "internalType": "uint256",
          "name": "amount",
          "type": "uint256"
        }
      ],
      "name": "BalanceWithdraw",
      "type": "event"
    },
    {
      "anonymous": false,
      "inputs": [
        {
          "indexed": true,
          "internalType": "uint256",
          "name": "id",
          "type": "uint256"
        },
        {
          "indexed": false,
          "internalType": "string",
          "name": "name",
          "type": "string"
        },
        {
          "indexed": false,
          "internalType": "string",
          "name": "imgUrl",
          "type": "string"
        },
        {
          "indexed": false,
          "internalType": "uint256",
          "name": "rentFee",
          "type": "uint256"
        },
        {
          "indexed": false,
          "internalType": "uint256",
          "name": "saleFee",
          "type": "uint256"
        }
      ],
      "name": "BinBinAdded",
      "type": "event"
    },
    {
      "anonymous": false,
      "inputs": [
        {
          "indexed": true,
          "internalType": "uint256",
          "name": "id",
          "type": "uint256"
        },
        {
          "indexed": false,
          "internalType": "string",
          "name": "name",
          "type": "string"
        },
        {
          "indexed": false,
          "internalType": "string",
          "name": "imgUrl",
          "type": "string"
        },
        {
          "indexed": false,
          "internalType": "uint256",
          "name": "rentFee",
          "type": "uint256"
        },
        {
          "indexed": false,
          "internalType": "uint256",
          "name": "saleFee",
          "type": "uint256"
        }
      ],
      "name": "BinBinMetadataEditeduint",
      "type": "event"
    },
    {
      "anonymous": false,
      "inputs": [
        {
          "indexed": true,
          "internalType": "uint256",
          "name": "id",
          "type": "uint256"
        },
        {
          "indexed": false,
          "internalType": "enum BinBins.Status",
          "name": "status",
          "type": "uint8"
        }
      ],
      "name": "BinBinStatusEdited",
      "type": "event"
    },
    {
      "anonymous": false,
      "inputs": [
        {
          "indexed": true,
          "internalType": "address",
          "name": "walletAddress",
          "type": "address"
        },
        {
          "indexed": true,
          "internalType": "uint256",
          "name": "BinBinid",
          "type": "uint256"
        }
      ],
      "name": "CheckIn",
      "type": "event"
    },
    {
      "anonymous": false,
      "inputs": [
        {
          "indexed": true,
          "internalType": "address",
          "name": "walletAddress",
          "type": "address"
        },
        {
          "indexed": true,
          "internalType": "uint256",
          "name": "BinBinid",
          "type": "uint256"
        }
      ],
      "name": "CheckOut",
      "type": "event"
    },
    {
      "anonymous": false,
      "inputs": [
        {
          "indexed": true,
          "internalType": "address",
          "name": "walletAddress",
          "type": "address"
        },
        {
          "indexed": false,
          "internalType": "uint256",
          "name": "amount",
          "type": "uint256"
        }
      ],
      "name": "Deposit",
      "type": "event"
    },
    {
      "anonymous": false,
      "inputs": [
        {
          "indexed": true,
          "internalType": "address",
          "name": "walletAddress",
          "type": "address"
        },
        {
          "indexed": false,
          "internalType": "uint256",
          "name": "amount",
          "type": "uint256"
        }
      ],
      "name": "PaymentMade",
      "type": "event"
    },
    {
      "anonymous": false,
      "inputs": [
        {
          "indexed": true,
          "internalType": "address",
          "name": "walletAddress",
          "type": "address"
        },
        {
          "indexed": false,
          "internalType": "string",
          "name": "name",
          "type": "string"
        },
        {
          "indexed": false,
          "internalType": "string",
          "name": "lastname",
          "type": "string"
        }
      ],
      "name": "UserAdded",
      "type": "event"
    },
    {
      "inputs": [
        {
          "internalType": "string",
          "name": "name",
          "type": "string"
        },
        {
          "internalType": "string",
          "name": "img",
          "type": "string"
        },
        {
          "internalType": "uint256",
          "name": "rent",
          "type": "uint256"
        },
        {
          "internalType": "uint256",
          "name": "sale",
          "type": "uint256"
        }
      ],
      "name": "addBinBin",
      "outputs": [],
      "stateMutability": "nonpayable",
      "type": "function"
    },
    {
      "inputs": [
        {
          "internalType": "string",
          "name": "name",
          "type": "string"
        },
        {
          "internalType": "string",
          "name": "surname",
          "type": "string"
        }
      ],
      "name": "addUser",
      "outputs": [],
      "stateMutability": "nonpayable",
      "type": "function"
    },
    {
      "inputs": [],
      "name": "checkIn",
      "outputs": [],
      "stateMutability": "nonpayable",
      "type": "function"
    },
    {
      "inputs": [
        {
          "internalType": "uint256",
          "name": "id",
          "type": "uint256"
        }
      ],
      "name": "checkOut",
      "outputs": [],
      "stateMutability": "nonpayable",
      "type": "function"
    },
    {
      "inputs": [],
      "name": "deposit",
      "outputs": [],
      "stateMutability": "payable",
      "type": "function"
    },
    {
      "inputs": [
        {
          "internalType": "uint256",
          "name": "id",
          "type": "uint256"
        },
        {
          "internalType": "string",
          "name": "name",
          "type": "string"
        },
        {
          "internalType": "string",
          "name": "imgURL",
          "type": "string"
        },
        {
          "internalType": "uint256",
          "name": "rentFee",
          "type": "uint256"
        },
        {
          "internalType": "uint256",
          "name": "saleFee",
          "type": "uint256"
        }
      ],
      "name": "editBinBinMetaData",
      "outputs": [],
      "stateMutability": "nonpayable",
      "type": "function"
    },
    {
      "inputs": [
        {
          "internalType": "uint256",
          "name": "id",
          "type": "uint256"
        },
        {
          "internalType": "enum BinBins.Status",
          "name": "status",
          "type": "uint8"
        }
      ],
      "name": "editStatus",
      "outputs": [],
      "stateMutability": "nonpayable",
      "type": "function"
    },
    {
      "inputs": [
        {
          "internalType": "uint256",
          "name": "id",
          "type": "uint256"
        }
      ],
      "name": "getBinBin",
      "outputs": [
        {
          "components": [
            {
              "internalType": "uint256",
              "name": "id",
              "type": "uint256"
            },
            {
              "internalType": "string",
              "name": "name",
              "type": "string"
            },
            {
              "internalType": "string",
              "name": "imgURL",
              "type": "string"
            },
            {
              "internalType": "enum BinBins.Status",
              "name": "status",
              "type": "uint8"
            },
            {
              "internalType": "uint256",
              "name": "rentFee",
              "type": "uint256"
            },
            {
              "internalType": "uint256",
              "name": "saleFee",
              "type": "uint256"
            }
          ],
          "internalType": "struct BinBins.BinBin",
          "name": "",
          "type": "tuple"
        }
      ],
      "stateMutability": "view",
      "type": "function"
    },
    {
      "inputs": [
        {
          "internalType": "uint256",
          "name": "id",
          "type": "uint256"
        }
      ],
      "name": "getBinBinByStatus",
      "outputs": [
        {
          "internalType": "enum BinBins.Status",
          "name": "status",
          "type": "uint8"
        }
      ],
      "stateMutability": "view",
      "type": "function"
    },
    {
      "inputs": [
        {
          "internalType": "enum BinBins.Status",
          "name": "_status",
          "type": "uint8"
        }
      ],
      "name": "getBinBinsByStatus",
      "outputs": [
        {
          "components": [
            {
              "internalType": "uint256",
              "name": "id",
              "type": "uint256"
            },
            {
              "internalType": "string",
              "name": "name",
              "type": "string"
            },
            {
              "internalType": "string",
              "name": "imgURL",
              "type": "string"
            },
            {
              "internalType": "enum BinBins.Status",
              "name": "status",
              "type": "uint8"
            },
            {
              "internalType": "uint256",
              "name": "rentFee",
              "type": "uint256"
            },
            {
              "internalType": "uint256",
              "name": "saleFee",
              "type": "uint256"
            }
          ],
          "internalType": "struct BinBins.BinBin[]",
          "name": "",
          "type": "tuple[]"
        }
      ],
      "stateMutability": "view",
      "type": "function"
    },
    {
      "inputs": [],
      "name": "getContractBalance",
      "outputs": [
        {
          "internalType": "uint256",
          "name": "",
          "type": "uint256"
        }
      ],
      "stateMutability": "view",
      "type": "function"
    },
    {
      "inputs": [],
      "name": "getCurrentCount",
      "outputs": [
        {
          "internalType": "uint256",
          "name": "",
          "type": "uint256"
        }
      ],
      "stateMutability": "view",
      "type": "function"
    },
    {
      "inputs": [],
      "name": "getOwner",
      "outputs": [
        {
          "internalType": "address",
          "name": "",
          "type": "address"
        }
      ],
      "stateMutability": "view",
      "type": "function"
    },
    {
      "inputs": [],
      "name": "getTotalPayment",
      "outputs": [
        {
          "internalType": "uint256",
          "name": "",
          "type": "uint256"
        }
      ],
      "stateMutability": "view",
      "type": "function"
    },
    {
      "inputs": [
        {
          "internalType": "address",
          "name": "walletAddress",
          "type": "address"
        }
      ],
      "name": "getUser",
      "outputs": [
        {
          "components": [
            {
              "internalType": "address",
              "name": "walletAddress",
              "type": "address"
            },
            {
              "internalType": "string",
              "name": "name",
              "type": "string"
            },
            {
              "internalType": "string",
              "name": "lastname",
              "type": "string"
            },
            {
              "internalType": "uint256",
              "name": "rentedBinBinId",
              "type": "uint256"
            },
            {
              "internalType": "uint256",
              "name": "balance",
              "type": "uint256"
            },
            {
              "internalType": "uint256",
              "name": "debt",
              "type": "uint256"
            },
            {
              "internalType": "uint256",
              "name": "startTime",
              "type": "uint256"
            }
          ],
          "internalType": "struct BinBins.User",
          "name": "",
          "type": "tuple"
        }
      ],
      "stateMutability": "view",
      "type": "function"
    },
    {
      "inputs": [],
      "name": "makePayment",
      "outputs": [],
      "stateMutability": "nonpayable",
      "type": "function"
    },
    {
      "inputs": [
        {
          "internalType": "address",
          "name": "_owner",
          "type": "address"
        }
      ],
      "name": "setOwner",
      "outputs": [],
      "stateMutability": "nonpayable",
      "type": "function"
    },
    {
      "inputs": [
        {
          "internalType": "uint256",
          "name": "amount",
          "type": "uint256"
        }
      ],
      "name": "withdrawBalance",
      "outputs": [],
      "stateMutability": "nonpayable",
      "type": "function"
    },
    {
      "inputs": [
        {
          "internalType": "uint256",
          "name": "amount",
          "type": "uint256"
        }
      ],
      "name": "withdrawOwnerBalance",
      "outputs": [],
      "stateMutability": "nonpayable",
      "type": "function"
    }
  ],
  "bytecode": "0x608060405234801561001057600080fd5b5060016000908155600280546001600160a01b031916331790556003556121198061003c6000396000f3fe6080604052600436106101145760003560e01c80636f9fb98a116100a0578063a6f43d5411610064578063a6f43d5414610313578063d0e30db014610340578063d8d7970014610348578063da76d5cd1461035d578063dd51babf1461037d57600080fd5b80636f9fb98a14610269578063828a6bc21461027e5780638310a539146102ab578063893d20e8146102cb5780638ea29217146102f357600080fd5b80633c69c657116100e75780633c69c657146101905780634ee135d1146101b05780636cb4b69d146101f95780636f77926b1461021c5780636f85bcb01461024957600080fd5b8063079eaf341461011957806313af40351461013b578063183ff0851461015b5780631bd2eeee14610170575b600080fd5b34801561012557600080fd5b50610139610134366004611a2b565b610392565b005b34801561014757600080fd5b50610139610156366004611a97565b610574565b34801561016757600080fd5b506101396105c0565b34801561017c57600080fd5b5061013961018b366004611ac7565b61070f565b34801561019c57600080fd5b506101396101ab366004611ac7565b6108d2565b3480156101bc57600080fd5b506101e36101cb366004611ac7565b60009081526005602052604090206003015460ff1690565b6040516101f09190611b18565b60405180910390f35b34801561020557600080fd5b5061020e6109f0565b6040519081526020016101f0565b34801561022857600080fd5b5061023c610237366004611a97565b610a24565b6040516101f09190611b73565b34801561025557600080fd5b50610139610264366004611bf4565b610c18565b34801561027557600080fd5b5061020e610de6565b34801561028a57600080fd5b5061029e610299366004611c86565b610e18565b6040516101f09190611d0d565b3480156102b757600080fd5b506101396102c6366004611d6f565b611110565b3480156102d757600080fd5b506002546040516001600160a01b0390911681526020016101f0565b3480156102ff57600080fd5b5061013961030e366004611d9b565b6111d4565b34801561031f57600080fd5b5061033361032e366004611ac7565b6112d5565b6040516101f09190611e24565b6101396114a1565b34801561035457600080fd5b50610139611524565b34801561036957600080fd5b50610139610378366004611ac7565b61166b565b34801561038957600080fd5b5061020e6117e0565b61039b336117f0565b156103e35760405162461bcd60e51b81526020600482015260136024820152725573657220616c72656164792065786973747360681b60448201526064015b60405180910390fd5b6040518060e00160405280336001600160a01b0316815260200185858080601f016020809104026020016040519081016040528093929190818152602001838380828437600092019190915250505090825250604080516020601f86018190048102820181019092528481529181019190859085908190840183828082843760009201829052509385525050506020808301829052604080840183905260608401839052608090930182905233825260048152919020825181546001600160a01b0319166001600160a01b0390911617815582820151805191926104cf9260018501929091019061188e565b50604082015180516104eb91600284019160209091019061188e565b5060608201516003820155608082015160048083019190915560a0830151600583015560c090920151600690910155336000818152602092909252604091829020915190917f8eab1db142a914aff8b515eedb9177bd7effaef6d714c41e30bdf1520677860791610566916001810191600290910190611f12565b60405180910390a250505050565b6002546001600160a01b0316331461059e5760405162461bcd60e51b81526004016103da90611f40565b600280546001600160a01b0319166001600160a01b0392909216919091179055565b6105c9336117f0565b6105e55760405162461bcd60e51b81526004016103da90611f81565b33600090815260046020526040902060030154806106455760405162461bcd60e51b815260206004820152601960248201527f596f7520617265206e6f742072656e7420612062696e62696e0000000000000060448201526064016103da565b336000908152600460205260408120600601546106629042611fc4565b6000838152600560205260409020600401549091506106818282611810565b33600090815260046020526040812060050180549091906106a3908490611fdb565b9091555050336000818152600460209081526040808320600380820185905560069091018490558784526005909252808320909101805460ff19166002179055518592917fa864a8b988e604bb05d6ce75d53efabb5620c45b15380b7bd0c51dcfa71dda0391a3505050565b610718336117f0565b6107345760405162461bcd60e51b81526004016103da90611f81565b33600090815260046020526040902060050154156107865760405162461bcd60e51b815260206004820152600f60248201526e165bdd481a185d994818481919589d608a1b60448201526064016103da565b600260008281526005602052604090206003015460ff1660028111156107ae576107ae611ae0565b146107f25760405162461bcd60e51b815260206004820152601460248201527342696e62696e206e6f7420617661696c61626c6560601b60448201526064016103da565b33600090815260046020526040902060030154156108525760405162461bcd60e51b815260206004820152601b60248201527f557365722068617320616c72656164792072656e74206120636172000000000060448201526064016103da565b33600090815260046020526040902042600690910155600160008281526005602052604090206003015460ff16600281111561089057610890611ae0565b505033600081815260046020526040808220600301849055518392917ff65ce03794824579bcd95d8c6743ffc10c4a5e7405fb3876c1abf81453105c4291a350565b6002546001600160a01b031633146108fc5760405162461bcd60e51b81526004016103da90611f40565b60035481111561094e5760405162461bcd60e51b815260206004820152601a60248201527f596f7520646f6e742068617665206d6f6e657920656e6f75676800000000000060448201526064016103da565b6002546040516000916001600160a01b03169083908381818185875af1925050503d806000811461099b576040519150601f19603f3d011682016040523d82523d6000602084013e6109a0565b606091505b50509050806109e35760405162461bcd60e51b815260206004820152600f60248201526e151c985b9cd9995c8819985a5b1959608a1b60448201526064016103da565b5060038054919091039055565b6002546000906001600160a01b03163314610a1d5760405162461bcd60e51b81526004016103da90611f40565b5060035490565b610a6d6040518060e0016040528060006001600160a01b031681526020016060815260200160608152602001600081526020016000815260200160008152602001600081525090565b610a76826117f0565b610a925760405162461bcd60e51b81526004016103da90611f81565b6001600160a01b03808316600090815260046020908152604091829020825160e081019093528054909316825260018301805492939291840191610ad590611e37565b80601f0160208091040260200160405190810160405280929190818152602001828054610b0190611e37565b8015610b4e5780601f10610b2357610100808354040283529160200191610b4e565b820191906000526020600020905b815481529060010190602001808311610b3157829003601f168201915b50505050508152602001600282018054610b6790611e37565b80601f0160208091040260200160405190810160405280929190818152602001828054610b9390611e37565b8015610be05780601f10610bb557610100808354040283529160200191610be0565b820191906000526020600020905b815481529060010190602001808311610bc357829003601f168201915b505050505081526020016003820154815260200160048201548152602001600582015481526020016006820154815250509050919050565b6002546001600160a01b03163314610c425760405162461bcd60e51b81526004016103da90611f40565b610c50600180546001019055565b6000610c5b60015490565b90506040518060c0016040528082815260200188888080601f016020809104026020016040519081016040528093929190818152602001838380828437600092019190915250505090825250604080516020601f890181900481028201810190925287815291810191908890889081908401838280828437600092019190915250505090825250602001600281526020808201869052604091820185905260008481526005825291909120825181558282015180519192610d249260018501929091019061188e565b5060408201518051610d4091600284019160209091019061188e565b50606082015160038201805460ff19166001836002811115610d6457610d64611ae0565b0217905550608082015160048083019190915560a090920151600591820155600083815260208290526040908190209283015491830154905184937fcf5c5101ece558da9a423dc7e124fff73645164f6b26fa4778e554bcaa6eb60093610dd5936001830193600290930192611ff3565b60405180910390a250505050505050565b6002546000906001600160a01b03163314610e135760405162461bcd60e51b81526004016103da90611f40565b504790565b6060600080610e2660015490565b905060015b81811015610e9157846002811115610e4557610e45611ae0565b60008281526005602052604090206003015460ff166002811115610e6b57610e6b611ae0565b1415610e7f5782610e7b8161202c565b9350505b80610e898161202c565b915050610e2b565b5060008267ffffffffffffffff811115610ead57610ead612047565b604051908082528060200260200182016040528015610ee657816020015b610ed3611912565b815260200190600190039081610ecb5790505b5060009350905060015b8281101561110757856002811115610f0a57610f0a611ae0565b60008281526005602052604090206003015460ff166002811115610f3057610f30611ae0565b14156110f557600560008281526020019081526020016000206040518060c001604052908160008201548152602001600182018054610f6e90611e37565b80601f0160208091040260200160405190810160405280929190818152602001828054610f9a90611e37565b8015610fe75780601f10610fbc57610100808354040283529160200191610fe7565b820191906000526020600020905b815481529060010190602001808311610fca57829003601f168201915b5050505050815260200160028201805461100090611e37565b80601f016020809104026020016040519081016040528092919081815260200182805461102c90611e37565b80156110795780601f1061104e57610100808354040283529160200191611079565b820191906000526020600020905b81548152906001019060200180831161105c57829003601f168201915b5050509183525050600382015460209091019060ff1660028111156110a0576110a0611ae0565b60028111156110b1576110b1611ae0565b8152602001600482015481526020016005820154815250508285815181106110db576110db61205d565b602002602001018190525083806110f19061202c565b9450505b806110ff8161202c565b915050610ef0565b50949350505050565b6002546001600160a01b0316331461113a5760405162461bcd60e51b81526004016103da90611f40565b6000828152600560205260409020546111655760405162461bcd60e51b81526004016103da90612073565b6000828152600560205260409020600301805482919060ff1916600183600281111561119357611193611ae0565b0217905550817fe8ac00e0adb776effc3eecbc889788c696282aaa9e581d4bdff8555f13db4473826040516111c89190611b18565b60405180910390a25050565b6002546001600160a01b031633146111fe5760405162461bcd60e51b81526004016103da90611f40565b6000878152600560205260409020546112295760405162461bcd60e51b81526004016103da90612073565b6000878152600560205260409020851561124d5761124b600182018888611959565b505b831561126357611261600282018686611959565b505b821561127157600481018390555b811561127f57600581018290555b877f91737379d9c7d0954e4577b8551a1faa25a026d32f4027d714f0c9dd1c5e00b58260010183600201846004015485600501546040516112c39493929190611ff3565b60405180910390a25050505050505050565b6112dd611912565b6000828152600560205260409020546113085760405162461bcd60e51b81526004016103da90612073565b600560008381526020019081526020016000206040518060c00160405290816000820154815260200160018201805461134090611e37565b80601f016020809104026020016040519081016040528092919081815260200182805461136c90611e37565b80156113b95780601f1061138e576101008083540402835291602001916113b9565b820191906000526020600020905b81548152906001019060200180831161139c57829003601f168201915b505050505081526020016002820180546113d290611e37565b80601f01602080910402602001604051908101604052809291908181526020018280546113fe90611e37565b801561144b5780601f106114205761010080835404028352916020019161144b565b820191906000526020600020905b81548152906001019060200180831161142e57829003601f168201915b5050509183525050600382015460209091019060ff16600281111561147257611472611ae0565b600281111561148357611483611ae0565b81526004820154602082015260059091015460409091015292915050565b6114aa336117f0565b6114c65760405162461bcd60e51b81526004016103da90611f81565b33600090815260046020819052604082200180543492906114e8908490611fdb565b909155505060405134815233907fe1fffcc4923d04b559f4d29a8bfc6cda04eb5b0d3c460751c2402c5c5cc9109c9060200160405180910390a2565b61152d336117f0565b6115495760405162461bcd60e51b81526004016103da90611f81565b3360009081526004602081905260409091206005810154910154816115a45760405162461bcd60e51b81526020600482015260116024820152701d5cd95c881a185cc81b9bdd081919589d607a1b60448201526064016103da565b818110156115f45760405162461bcd60e51b815260206004820152601d60248201527f757365722068617320696e73756666696369656e742062616c616e636500000060448201526064016103da565b336000908152600460208190526040822001805484900390556003805484929061161f908490611fdb565b90915550503360008181526004602052604080822060050191909155517f3a2d0e41c506b136330c6e5e0295ccbf0966daece99bfe7c89020cc01dbfb8d6906111c89085815260200190565b611673611834565b61167c336117f0565b6116985760405162461bcd60e51b81526004016103da90611f81565b33600090815260046020819052604090912001548111156116fb5760405162461bcd60e51b815260206004820152601a60248201527f596f7520646f6e742068617665206d6f6e657920656e6f75676800000000000060448201526064016103da565b336000818152600460208190526040808320909101805485900390555190919083908381818185875af1925050503d8060008114611755576040519150601f19603f3d011682016040523d82523d6000602084013e61175a565b606091505b505090508061179d5760405162461bcd60e51b815260206004820152600f60248201526e151c985b9cd9995c8819985a5b1959608a1b60448201526064016103da565b60405182815233907f8777844761eb456b028cf7f87fc8dcb146ad8eeafbc6f80f2d006e5cd9e5a7459060200160405180910390a2506117dd6001600055565b50565b60006117eb60015490565b905090565b6001600160a01b0390811660009081526004602052604090205416151590565b60008061181e603c856120a2565b905061182a83826120c4565b9150505b92915050565b600260005414156118875760405162461bcd60e51b815260206004820152601f60248201527f5265656e7472616e637947756172643a207265656e7472616e742063616c6c0060448201526064016103da565b6002600055565b82805461189a90611e37565b90600052602060002090601f0160209004810192826118bc5760008555611902565b82601f106118d557805160ff1916838001178555611902565b82800160010185558215611902579182015b828111156119025782518255916020019190600101906118e7565b5061190e9291506119cd565b5090565b6040518060c001604052806000815260200160608152602001606081526020016000600281111561194557611945611ae0565b815260200160008152602001600081525090565b82805461196590611e37565b90600052602060002090601f0160209004810192826119875760008555611902565b82601f106119a05782800160ff19823516178555611902565b82800160010185558215611902579182015b828111156119025782358255916020019190600101906119b2565b5b8082111561190e57600081556001016119ce565b60008083601f8401126119f457600080fd5b50813567ffffffffffffffff811115611a0c57600080fd5b602083019150836020828501011115611a2457600080fd5b9250929050565b60008060008060408587031215611a4157600080fd5b843567ffffffffffffffff80821115611a5957600080fd5b611a65888389016119e2565b90965094506020870135915080821115611a7e57600080fd5b50611a8b878288016119e2565b95989497509550505050565b600060208284031215611aa957600080fd5b81356001600160a01b0381168114611ac057600080fd5b9392505050565b600060208284031215611ad957600080fd5b5035919050565b634e487b7160e01b600052602160045260246000fd5b60038110611b1457634e487b7160e01b600052602160045260246000fd5b9052565b6020810161182e8284611af6565b6000815180845260005b81811015611b4c57602081850181015186830182015201611b30565b81811115611b5e576000602083870101525b50601f01601f19169290920160200192915050565b602080825282516001600160a01b03168282015282015160e06040830152600090611ba2610100840182611b26565b90506040840151601f19848303016060850152611bbf8282611b26565b91505060608401516080840152608084015160a084015260a084015160c084015260c084015160e08401528091505092915050565b60008060008060008060808789031215611c0d57600080fd5b863567ffffffffffffffff80821115611c2557600080fd5b611c318a838b016119e2565b90985096506020890135915080821115611c4a57600080fd5b50611c5789828a016119e2565b979a9699509760408101359660609091013595509350505050565b803560038110611c8157600080fd5b919050565b600060208284031215611c9857600080fd5b611ac082611c72565b805182526000602082015160c06020850152611cc060c0850182611b26565b905060408301518482036040860152611cd98282611b26565b9150506060830151611cee6060860182611af6565b506080830151608085015260a083015160a08501528091505092915050565b6000602080830181845280855180835260408601915060408160051b870101925083870160005b82811015611d6257603f19888603018452611d50858351611ca1565b94509285019290850190600101611d34565b5092979650505050505050565b60008060408385031215611d8257600080fd5b82359150611d9260208401611c72565b90509250929050565b600080600080600080600060a0888a031215611db657600080fd5b87359650602088013567ffffffffffffffff80821115611dd557600080fd5b611de18b838c016119e2565b909850965060408a0135915080821115611dfa57600080fd5b50611e078a828b016119e2565b989b979a5095989597966060870135966080013595509350505050565b602081526000611ac06020830184611ca1565b600181811c90821680611e4b57607f821691505b60208210811415611e6c57634e487b7160e01b600052602260045260246000fd5b50919050565b8054600090600181811c9080831680611e8c57607f831692505b6020808410821415611eae57634e487b7160e01b600052602260045260246000fd5b83885260208801828015611ec95760018114611eda57611f05565b60ff19871682528282019750611f05565b60008981526020902060005b87811015611eff57815484820152908601908401611ee6565b83019850505b5050505050505092915050565b604081526000611f256040830185611e72565b8281036020840152611f378185611e72565b95945050505050565b60208082526021908201527f4f6e6c7920746865206f776e65722063616c6c20746869732066756e6374696f6040820152603760f91b606082015260800190565b602080825260139082015272155cd95c88191bd95cc81b9bdd08195e1a5cdd606a1b604082015260600190565b634e487b7160e01b600052601160045260246000fd5b600082821015611fd657611fd6611fae565b500390565b60008219821115611fee57611fee611fae565b500190565b6080815260006120066080830187611e72565b82810360208401526120188187611e72565b604084019590955250506060015292915050565b600060001982141561204057612040611fae565b5060010190565b634e487b7160e01b600052604160045260246000fd5b634e487b7160e01b600052603260045260246000fd5b6020808252601590820152742a3432b9329034b9903737ba1030903134b73134b760591b604082015260600190565b6000826120bf57634e487b7160e01b600052601260045260246000fd5b500490565b60008160001904831182151516156120de576120de611fae565b50029056fea2646970667358221220556bc4e1e0a464d017e1769b482fe336a23cc176ae90cb4239188810f84e0ad364736f6c63430008090033",
  "linkReferences": {},
  "deployedLinkReferences": {}
}